{
  "contractName": "Ticketing",
  "abi": [
    {
      "inputs": [],
      "stateMutability": "nonpayable",
      "type": "constructor"
    },
    {
      "anonymous": false,
      "inputs": [
        {
          "indexed": true,
          "internalType": "address",
          "name": "owner",
          "type": "address"
        },
        {
          "indexed": true,
          "internalType": "address",
          "name": "approved",
          "type": "address"
        },
        {
          "indexed": true,
          "internalType": "uint256",
          "name": "tokenId",
          "type": "uint256"
        }
      ],
      "name": "Approval",
      "type": "event"
    },
    {
      "anonymous": false,
      "inputs": [
        {
          "indexed": true,
          "internalType": "address",
          "name": "owner",
          "type": "address"
        },
        {
          "indexed": true,
          "internalType": "address",
          "name": "operator",
          "type": "address"
        },
        {
          "indexed": false,
          "internalType": "bool",
          "name": "approved",
          "type": "bool"
        }
      ],
      "name": "ApprovalForAll",
      "type": "event"
    },
    {
      "anonymous": false,
      "inputs": [
        {
          "indexed": true,
          "internalType": "address",
          "name": "previousOwner",
          "type": "address"
        },
        {
          "indexed": true,
          "internalType": "address",
          "name": "newOwner",
          "type": "address"
        }
      ],
      "name": "OwnershipTransferred",
      "type": "event"
    },
    {
      "anonymous": false,
      "inputs": [
        {
          "indexed": true,
          "internalType": "address",
          "name": "from",
          "type": "address"
        },
        {
          "indexed": true,
          "internalType": "address",
          "name": "to",
          "type": "address"
        },
        {
          "indexed": true,
          "internalType": "uint256",
          "name": "tokenId",
          "type": "uint256"
        }
      ],
      "name": "Transfer",
      "type": "event"
    },
    {
      "inputs": [
        {
          "internalType": "address",
          "name": "to",
          "type": "address"
        },
        {
          "internalType": "uint256",
          "name": "tokenId",
          "type": "uint256"
        }
      ],
      "name": "approve",
      "outputs": [],
      "stateMutability": "nonpayable",
      "type": "function"
    },
    {
      "inputs": [
        {
          "internalType": "address",
          "name": "owner",
          "type": "address"
        }
      ],
      "name": "balanceOf",
      "outputs": [
        {
          "internalType": "uint256",
          "name": "",
          "type": "uint256"
        }
      ],
      "stateMutability": "view",
      "type": "function",
      "constant": true
    },
    {
      "inputs": [
        {
          "internalType": "uint256",
          "name": "tokenId",
          "type": "uint256"
        }
      ],
      "name": "getApproved",
      "outputs": [
        {
          "internalType": "address",
          "name": "",
          "type": "address"
        }
      ],
      "stateMutability": "view",
      "type": "function",
      "constant": true
    },
    {
      "inputs": [
        {
          "internalType": "address",
          "name": "owner",
          "type": "address"
        },
        {
          "internalType": "address",
          "name": "operator",
          "type": "address"
        }
      ],
      "name": "isApprovedForAll",
      "outputs": [
        {
          "internalType": "bool",
          "name": "",
          "type": "bool"
        }
      ],
      "stateMutability": "view",
      "type": "function",
      "constant": true
    },
    {
      "inputs": [],
      "name": "name",
      "outputs": [
        {
          "internalType": "string",
          "name": "",
          "type": "string"
        }
      ],
      "stateMutability": "view",
      "type": "function",
      "constant": true
    },
    {
      "inputs": [],
      "name": "owner",
      "outputs": [
        {
          "internalType": "address",
          "name": "",
          "type": "address"
        }
      ],
      "stateMutability": "view",
      "type": "function",
      "constant": true
    },
    {
      "inputs": [
        {
          "internalType": "uint256",
          "name": "tokenId",
          "type": "uint256"
        }
      ],
      "name": "ownerOf",
      "outputs": [
        {
          "internalType": "address",
          "name": "",
          "type": "address"
        }
      ],
      "stateMutability": "view",
      "type": "function",
      "constant": true
    },
    {
      "inputs": [],
      "name": "renounceOwnership",
      "outputs": [],
      "stateMutability": "nonpayable",
      "type": "function"
    },
    {
      "inputs": [
        {
          "internalType": "address",
          "name": "from",
          "type": "address"
        },
        {
          "internalType": "address",
          "name": "to",
          "type": "address"
        },
        {
          "internalType": "uint256",
          "name": "tokenId",
          "type": "uint256"
        }
      ],
      "name": "safeTransferFrom",
      "outputs": [],
      "stateMutability": "nonpayable",
      "type": "function"
    },
    {
      "inputs": [
        {
          "internalType": "address",
          "name": "from",
          "type": "address"
        },
        {
          "internalType": "address",
          "name": "to",
          "type": "address"
        },
        {
          "internalType": "uint256",
          "name": "tokenId",
          "type": "uint256"
        },
        {
          "internalType": "bytes",
          "name": "data",
          "type": "bytes"
        }
      ],
      "name": "safeTransferFrom",
      "outputs": [],
      "stateMutability": "nonpayable",
      "type": "function"
    },
    {
      "inputs": [
        {
          "internalType": "address",
          "name": "operator",
          "type": "address"
        },
        {
          "internalType": "bool",
          "name": "approved",
          "type": "bool"
        }
      ],
      "name": "setApprovalForAll",
      "outputs": [],
      "stateMutability": "nonpayable",
      "type": "function"
    },
    {
      "inputs": [
        {
          "internalType": "bytes4",
          "name": "interfaceId",
          "type": "bytes4"
        }
      ],
      "name": "supportsInterface",
      "outputs": [
        {
          "internalType": "bool",
          "name": "",
          "type": "bool"
        }
      ],
      "stateMutability": "view",
      "type": "function",
      "constant": true
    },
    {
      "inputs": [],
      "name": "symbol",
      "outputs": [
        {
          "internalType": "string",
          "name": "",
          "type": "string"
        }
      ],
      "stateMutability": "view",
      "type": "function",
      "constant": true
    },
    {
      "inputs": [
        {
          "internalType": "uint256",
          "name": "tokenId",
          "type": "uint256"
        }
      ],
      "name": "tokenURI",
      "outputs": [
        {
          "internalType": "string",
          "name": "",
          "type": "string"
        }
      ],
      "stateMutability": "view",
      "type": "function",
      "constant": true
    },
    {
      "inputs": [
        {
          "internalType": "address",
          "name": "from",
          "type": "address"
        },
        {
          "internalType": "address",
          "name": "to",
          "type": "address"
        },
        {
          "internalType": "uint256",
          "name": "tokenId",
          "type": "uint256"
        }
      ],
      "name": "transferFrom",
      "outputs": [],
      "stateMutability": "nonpayable",
      "type": "function"
    },
    {
      "inputs": [
        {
          "internalType": "address",
          "name": "newOwner",
          "type": "address"
        }
      ],
      "name": "transferOwnership",
      "outputs": [],
      "stateMutability": "nonpayable",
      "type": "function"
    },
    {
      "inputs": [
        {
          "internalType": "address",
          "name": "to",
          "type": "address"
        },
        {
          "internalType": "string",
          "name": "eventName",
          "type": "string"
        },
        {
          "internalType": "uint256",
          "name": "eventDate",
          "type": "uint256"
        },
        {
          "internalType": "string",
          "name": "venue",
          "type": "string"
        },
        {
          "internalType": "uint256",
          "name": "price",
          "type": "uint256"
        }
      ],
      "name": "mintTicket",
      "outputs": [],
      "stateMutability": "nonpayable",
      "type": "function"
    },
    {
      "inputs": [
        {
          "internalType": "uint256",
          "name": "ticketId",
          "type": "uint256"
        }
      ],
      "name": "getTicketInfo",
      "outputs": [
        {
          "internalType": "string",
          "name": "eventName",
          "type": "string"
        },
        {
          "internalType": "uint256",
          "name": "eventDate",
          "type": "uint256"
        },
        {
          "internalType": "string",
          "name": "venue",
          "type": "string"
        },
        {
          "internalType": "uint256",
          "name": "price",
          "type": "uint256"
        }
      ],
      "stateMutability": "view",
      "type": "function",
      "constant": true
    }
  ],
  "bytecode": "0x60806040523480156200001157600080fd5b506040518060400160405280600981526020017f5469636b6574696e6700000000000000000000000000000000000000000000008152506040518060400160405280600481526020017f5449434b00000000000000000000000000000000000000000000000000000000815250816000908051906020019062000096929190620001a6565b508060019080519060200190620000af929190620001a6565b505050620000d2620000c6620000d860201b60201c565b620000e060201b60201c565b620002bb565b600033905090565b6000600660009054906101000a900473ffffffffffffffffffffffffffffffffffffffff16905081600660006101000a81548173ffffffffffffffffffffffffffffffffffffffff021916908373ffffffffffffffffffffffffffffffffffffffff1602179055508173ffffffffffffffffffffffffffffffffffffffff168173ffffffffffffffffffffffffffffffffffffffff167f8be0079c531659141344cd1fd0a4f28419497f9722a3daafe3b4186f6b6457e060405160405180910390a35050565b828054620001b49062000256565b90600052602060002090601f016020900481019282620001d8576000855562000224565b82601f10620001f357805160ff191683800117855562000224565b8280016001018555821562000224579182015b828111156200022357825182559160200191906001019062000206565b5b50905062000233919062000237565b5090565b5b808211156200025257600081600090555060010162000238565b5090565b600060028204905060018216806200026f57607f821691505b602082108114156200028657620002856200028c565b5b50919050565b7f4e487b7100000000000000000000000000000000000000000000000000000000600052602260045260246000fd5b612ec880620002cb6000396000f3fe608060405234801561001057600080fd5b50600436106101165760003560e01c8063715018a6116100a2578063b88d4fde11610071578063b88d4fde146102cb578063c87b56dd146102e7578063e985e9c514610317578063f2fde38b14610347578063ff99a0631461036357610116565b8063715018a6146102695780638da5cb5b1461027357806395d89b4114610291578063a22cb465146102af57610116565b806323b872dd116100e957806323b872dd146101b557806338697073146101d157806342842e0e146101ed5780636352211e1461020957806370a082311461023957610116565b806301ffc9a71461011b57806306fdde031461014b578063081812fc14610169578063095ea7b314610199575b600080fd5b610135600480360381019061013091906121d3565b610396565b6040516101429190612593565b60405180910390f35b610153610478565b60405161016091906125ae565b60405180910390f35b610183600480360381019061017e9190612225565b61050a565b604051610190919061252c565b60405180910390f35b6101b360048036038101906101ae9190612197565b610550565b005b6101cf60048036038101906101ca9190611fea565b610668565b005b6101eb60048036038101906101e691906120f0565b6106c8565b005b61020760048036038101906102029190611fea565b610782565b005b610223600480360381019061021e9190612225565b6107a2565b604051610230919061252c565b60405180910390f35b610253600480360381019061024e9190611f85565b610829565b60405161026091906127e3565b60405180910390f35b6102716108e1565b005b61027b6108f5565b604051610288919061252c565b60405180910390f35b61029961091f565b6040516102a691906125ae565b60405180910390f35b6102c960048036038101906102c491906120b4565b6109b1565b005b6102e560048036038101906102e09190612039565b6109c7565b005b61030160048036038101906102fc9190612225565b610a29565b60405161030e91906125ae565b60405180910390f35b610331600480360381019061032c9190611fae565b610a91565b60405161033e9190612593565b60405180910390f35b610361600480360381019061035c9190611f85565b610b25565b005b61037d60048036038101906103789190612225565b610ba9565b60405161038d94939291906125d0565b60405180910390f35b60007f80ac58cd000000000000000000000000000000000000000000000000000000007bffffffffffffffffffffffffffffffffffffffffffffffffffffffff1916827bffffffffffffffffffffffffffffffffffffffffffffffffffffffff1916148061046157507f5b5e139f000000000000000000000000000000000000000000000000000000007bffffffffffffffffffffffffffffffffffffffffffffffffffffffff1916827bffffffffffffffffffffffffffffffffffffffffffffffffffffffff1916145b80610471575061047082610d4a565b5b9050919050565b6060600080546104879061297e565b80601f01602080910402602001604051908101604052809291908181526020018280546104b39061297e565b80156105005780601f106104d557610100808354040283529160200191610500565b820191906000526020600020905b8154815290600101906020018083116104e357829003601f168201915b5050505050905090565b600061051582610db4565b6004600083815260200190815260200160002060009054906101000a900473ffffffffffffffffffffffffffffffffffffffff169050919050565b600061055b826107a2565b90508073ffffffffffffffffffffffffffffffffffffffff168373ffffffffffffffffffffffffffffffffffffffff1614156105cc576040517f08c379a00000000000000000000000000000000000000000000000000000000081526004016105c3906127a3565b60405180910390fd5b8073ffffffffffffffffffffffffffffffffffffffff166105eb610dff565b73ffffffffffffffffffffffffffffffffffffffff16148061061a575061061981610614610dff565b610a91565b5b610659576040517f08c379a0000000000000000000000000000000000000000000000000000000008152600401610650906127c3565b60405180910390fd5b6106638383610e07565b505050565b610679610673610dff565b82610ec0565b6106b8576040517f08c379a00000000000000000000000000000000000000000000000000000000081526004016106af90612623565b60405180910390fd5b6106c3838383610f55565b505050565b6106d061124f565b6000600760008154809291906106e5906129e1565b9190505590506106f586826112cd565b604051806080016040528086815260200185815260200184815260200183815250600860008381526020019081526020016000206000820151816000019080519060200190610745929190611da9565b5060208201518160010155604082015181600201908051906020019061076c929190611da9565b5060608201518160030155905050505050505050565b61079d838383604051806020016040528060008152506109c7565b505050565b6000806107ae836112eb565b9050600073ffffffffffffffffffffffffffffffffffffffff168173ffffffffffffffffffffffffffffffffffffffff161415610820576040517f08c379a000000000000000000000000000000000000000000000000000000000815260040161081790612783565b60405180910390fd5b80915050919050565b60008073ffffffffffffffffffffffffffffffffffffffff168273ffffffffffffffffffffffffffffffffffffffff16141561089a576040517f08c379a000000000000000000000000000000000000000000000000000000000815260040161089190612703565b60405180910390fd5b600360008373ffffffffffffffffffffffffffffffffffffffff1673ffffffffffffffffffffffffffffffffffffffff168152602001908152602001600020549050919050565b6108e961124f565b6108f36000611328565b565b6000600660009054906101000a900473ffffffffffffffffffffffffffffffffffffffff16905090565b60606001805461092e9061297e565b80601f016020809104026020016040519081016040528092919081815260200182805461095a9061297e565b80156109a75780601f1061097c576101008083540402835291602001916109a7565b820191906000526020600020905b81548152906001019060200180831161098a57829003601f168201915b5050505050905090565b6109c36109bc610dff565b83836113ee565b5050565b6109d86109d2610dff565b83610ec0565b610a17576040517f08c379a0000000000000000000000000000000000000000000000000000000008152600401610a0e90612623565b60405180910390fd5b610a238484848461155b565b50505050565b6060610a3482610db4565b6000610a3e6115b7565b90506000815111610a5e5760405180602001604052806000815250610a89565b80610a68846115ce565b604051602001610a79929190612508565b6040516020818303038152906040525b915050919050565b6000600560008473ffffffffffffffffffffffffffffffffffffffff1673ffffffffffffffffffffffffffffffffffffffff16815260200190815260200160002060008373ffffffffffffffffffffffffffffffffffffffff1673ffffffffffffffffffffffffffffffffffffffff16815260200190815260200160002060009054906101000a900460ff16905092915050565b610b2d61124f565b600073ffffffffffffffffffffffffffffffffffffffff168173ffffffffffffffffffffffffffffffffffffffff161415610b9d576040517f08c379a0000000000000000000000000000000000000000000000000000000008152600401610b9490612663565b60405180910390fd5b610ba681611328565b50565b6060600060606000610bba856116f2565b610bf9576040517f08c379a0000000000000000000000000000000000000000000000000000000008152600401610bf090612723565b60405180910390fd5b6000600860008781526020019081526020016000209050806000018160010154826002018360030154838054610c2e9061297e565b80601f0160208091040260200160405190810160405280929190818152602001828054610c5a9061297e565b8015610ca75780601f10610c7c57610100808354040283529160200191610ca7565b820191906000526020600020905b815481529060010190602001808311610c8a57829003601f168201915b50505050509350818054610cba9061297e565b80601f0160208091040260200160405190810160405280929190818152602001828054610ce69061297e565b8015610d335780601f10610d0857610100808354040283529160200191610d33565b820191906000526020600020905b815481529060010190602001808311610d1657829003601f168201915b505050505091509450945094509450509193509193565b60007f01ffc9a7000000000000000000000000000000000000000000000000000000007bffffffffffffffffffffffffffffffffffffffffffffffffffffffff1916827bffffffffffffffffffffffffffffffffffffffffffffffffffffffff1916149050919050565b610dbd816116f2565b610dfc576040517f08c379a0000000000000000000000000000000000000000000000000000000008152600401610df390612783565b60405180910390fd5b50565b600033905090565b816004600083815260200190815260200160002060006101000a81548173ffffffffffffffffffffffffffffffffffffffff021916908373ffffffffffffffffffffffffffffffffffffffff160217905550808273ffffffffffffffffffffffffffffffffffffffff16610e7a836107a2565b73ffffffffffffffffffffffffffffffffffffffff167f8c5be1e5ebec7d5bd14f71427d1e84f3dd0314c0f7b2291e5b200ac8c7c3b92560405160405180910390a45050565b600080610ecc836107a2565b90508073ffffffffffffffffffffffffffffffffffffffff168473ffffffffffffffffffffffffffffffffffffffff161480610f0e5750610f0d8185610a91565b5b80610f4c57508373ffffffffffffffffffffffffffffffffffffffff16610f348461050a565b73ffffffffffffffffffffffffffffffffffffffff16145b91505092915050565b8273ffffffffffffffffffffffffffffffffffffffff16610f75826107a2565b73ffffffffffffffffffffffffffffffffffffffff1614610fcb576040517f08c379a0000000000000000000000000000000000000000000000000000000008152600401610fc290612683565b60405180910390fd5b600073ffffffffffffffffffffffffffffffffffffffff168273ffffffffffffffffffffffffffffffffffffffff16141561103b576040517f08c379a0000000000000000000000000000000000000000000000000000000008152600401611032906126c3565b60405180910390fd5b6110488383836001611733565b8273ffffffffffffffffffffffffffffffffffffffff16611068826107a2565b73ffffffffffffffffffffffffffffffffffffffff16146110be576040517f08c379a00000000000000000000000000000000000000000000000000000000081526004016110b590612683565b60405180910390fd5b6004600082815260200190815260200160002060006101000a81549073ffffffffffffffffffffffffffffffffffffffff02191690556001600360008573ffffffffffffffffffffffffffffffffffffffff1673ffffffffffffffffffffffffffffffffffffffff168152602001908152602001600020600082825403925050819055506001600360008473ffffffffffffffffffffffffffffffffffffffff1673ffffffffffffffffffffffffffffffffffffffff16815260200190815260200160002060008282540192505081905550816002600083815260200190815260200160002060006101000a81548173ffffffffffffffffffffffffffffffffffffffff021916908373ffffffffffffffffffffffffffffffffffffffff160217905550808273ffffffffffffffffffffffffffffffffffffffff168473ffffffffffffffffffffffffffffffffffffffff167fddf252ad1be2c89b69c2b068fc378daa952ba7f163c4a11628f55a4df523b3ef60405160405180910390a461124a8383836001611739565b505050565b611257610dff565b73ffffffffffffffffffffffffffffffffffffffff166112756108f5565b73ffffffffffffffffffffffffffffffffffffffff16146112cb576040517f08c379a00000000000000000000000000000000000000000000000000000000081526004016112c290612763565b60405180910390fd5b565b6112e782826040518060200160405280600081525061173f565b5050565b60006002600083815260200190815260200160002060009054906101000a900473ffffffffffffffffffffffffffffffffffffffff169050919050565b6000600660009054906101000a900473ffffffffffffffffffffffffffffffffffffffff16905081600660006101000a81548173ffffffffffffffffffffffffffffffffffffffff021916908373ffffffffffffffffffffffffffffffffffffffff1602179055508173ffffffffffffffffffffffffffffffffffffffff168173ffffffffffffffffffffffffffffffffffffffff167f8be0079c531659141344cd1fd0a4f28419497f9722a3daafe3b4186f6b6457e060405160405180910390a35050565b8173ffffffffffffffffffffffffffffffffffffffff168373ffffffffffffffffffffffffffffffffffffffff16141561145d576040517f08c379a0000000000000000000000000000000000000000000000000000000008152600401611454906126e3565b60405180910390fd5b80600560008573ffffffffffffffffffffffffffffffffffffffff1673ffffffffffffffffffffffffffffffffffffffff16815260200190815260200160002060008473ffffffffffffffffffffffffffffffffffffffff1673ffffffffffffffffffffffffffffffffffffffff16815260200190815260200160002060006101000a81548160ff0219169083151502179055508173ffffffffffffffffffffffffffffffffffffffff168373ffffffffffffffffffffffffffffffffffffffff167f17307eab39ab6107e8899845ad3d59bd9653f200f220920489ca2b5937696c318360405161154e9190612593565b60405180910390a3505050565b611566848484610f55565b6115728484848461179a565b6115b1576040517f08c379a00000000000000000000000000000000000000000000000000000000081526004016115a890612643565b60405180910390fd5b50505050565b606060405180602001604052806000815250905090565b6060600060016115dd84611931565b01905060008167ffffffffffffffff811115611622577f4e487b7100000000000000000000000000000000000000000000000000000000600052604160045260246000fd5b6040519080825280601f01601f1916602001820160405280156116545781602001600182028036833780820191505090505b509050600082602001820190505b6001156116e7578080600190039150507f3031323334353637383961626364656600000000000000000000000000000000600a86061a8153600a85816116d1577f4e487b7100000000000000000000000000000000000000000000000000000000600052601260045260246000fd5b04945060008514156116e2576116e7565b611662565b819350505050919050565b60008073ffffffffffffffffffffffffffffffffffffffff16611714836112eb565b73ffffffffffffffffffffffffffffffffffffffff1614159050919050565b50505050565b50505050565b6117498383611b68565b611756600084848461179a565b611795576040517f08c379a000000000000000000000000000000000000000000000000000000000815260040161178c90612643565b60405180910390fd5b505050565b60006117bb8473ffffffffffffffffffffffffffffffffffffffff16611d86565b15611924578373ffffffffffffffffffffffffffffffffffffffff1663150b7a026117e4610dff565b8786866040518563ffffffff1660e01b81526004016118069493929190612547565b602060405180830381600087803b15801561182057600080fd5b505af192505050801561185157506040513d601f19601f8201168201806040525081019061184e91906121fc565b60015b6118d4573d8060008114611881576040519150601f19603f3d011682016040523d82523d6000602084013e611886565b606091505b506000815114156118cc576040517f08c379a00000000000000000000000000000000000000000000000000000000081526004016118c390612643565b60405180910390fd5b805181602001fd5b63150b7a0260e01b7bffffffffffffffffffffffffffffffffffffffffffffffffffffffff1916817bffffffffffffffffffffffffffffffffffffffffffffffffffffffff191614915050611929565b600190505b949350505050565b600080600090507a184f03e93ff9f4daa797ed6e38ed64bf6a1f01000000000000000083106119b5577a184f03e93ff9f4daa797ed6e38ed64bf6a1f01000000000000000083816119ab577f4e487b7100000000000000000000000000000000000000000000000000000000600052601260045260246000fd5b0492506040810190505b6d04ee2d6d415b85acef81000000008310611a18576d04ee2d6d415b85acef81000000008381611a0e577f4e487b7100000000000000000000000000000000000000000000000000000000600052601260045260246000fd5b0492506020810190505b662386f26fc100008310611a6d57662386f26fc100008381611a63577f4e487b7100000000000000000000000000000000000000000000000000000000600052601260045260246000fd5b0492506010810190505b6305f5e1008310611abc576305f5e1008381611ab2577f4e487b7100000000000000000000000000000000000000000000000000000000600052601260045260246000fd5b0492506008810190505b6127108310611b07576127108381611afd577f4e487b7100000000000000000000000000000000000000000000000000000000600052601260045260246000fd5b0492506004810190505b60648310611b505760648381611b46577f4e487b7100000000000000000000000000000000000000000000000000000000600052601260045260246000fd5b0492506002810190505b600a8310611b5f576001810190505b80915050919050565b600073ffffffffffffffffffffffffffffffffffffffff168273ffffffffffffffffffffffffffffffffffffffff161415611bd8576040517f08c379a0000000000000000000000000000000000000000000000000000000008152600401611bcf90612743565b60405180910390fd5b611be1816116f2565b15611c21576040517f08c379a0000000000000000000000000000000000000000000000000000000008152600401611c18906126a3565b60405180910390fd5b611c2f600083836001611733565b611c38816116f2565b15611c78576040517f08c379a0000000000000000000000000000000000000000000000000000000008152600401611c6f906126a3565b60405180910390fd5b6001600360008473ffffffffffffffffffffffffffffffffffffffff1673ffffffffffffffffffffffffffffffffffffffff16815260200190815260200160002060008282540192505081905550816002600083815260200190815260200160002060006101000a81548173ffffffffffffffffffffffffffffffffffffffff021916908373ffffffffffffffffffffffffffffffffffffffff160217905550808273ffffffffffffffffffffffffffffffffffffffff16600073ffffffffffffffffffffffffffffffffffffffff167fddf252ad1be2c89b69c2b068fc378daa952ba7f163c4a11628f55a4df523b3ef60405160405180910390a4611d82600083836001611739565b5050565b6000808273ffffffffffffffffffffffffffffffffffffffff163b119050919050565b828054611db59061297e565b90600052602060002090601f016020900481019282611dd75760008555611e1e565b82601f10611df057805160ff1916838001178555611e1e565b82800160010185558215611e1e579182015b82811115611e1d578251825591602001919060010190611e02565b5b509050611e2b9190611e2f565b5090565b5b80821115611e48576000816000905550600101611e30565b5090565b6000611e5f611e5a84612823565b6127fe565b905082815260208101848484011115611e7757600080fd5b611e8284828561293c565b509392505050565b6000611e9d611e9884612854565b6127fe565b905082815260208101848484011115611eb557600080fd5b611ec084828561293c565b509392505050565b600081359050611ed781612e36565b92915050565b600081359050611eec81612e4d565b92915050565b600081359050611f0181612e64565b92915050565b600081519050611f1681612e64565b92915050565b600082601f830112611f2d57600080fd5b8135611f3d848260208601611e4c565b91505092915050565b600082601f830112611f5757600080fd5b8135611f67848260208601611e8a565b91505092915050565b600081359050611f7f81612e7b565b92915050565b600060208284031215611f9757600080fd5b6000611fa584828501611ec8565b91505092915050565b60008060408385031215611fc157600080fd5b6000611fcf85828601611ec8565b9250506020611fe085828601611ec8565b9150509250929050565b600080600060608486031215611fff57600080fd5b600061200d86828701611ec8565b935050602061201e86828701611ec8565b925050604061202f86828701611f70565b9150509250925092565b6000806000806080858703121561204f57600080fd5b600061205d87828801611ec8565b945050602061206e87828801611ec8565b935050604061207f87828801611f70565b925050606085013567ffffffffffffffff81111561209c57600080fd5b6120a887828801611f1c565b91505092959194509250565b600080604083850312156120c757600080fd5b60006120d585828601611ec8565b92505060206120e685828601611edd565b9150509250929050565b600080600080600060a0868803121561210857600080fd5b600061211688828901611ec8565b955050602086013567ffffffffffffffff81111561213357600080fd5b61213f88828901611f46565b945050604061215088828901611f70565b935050606086013567ffffffffffffffff81111561216d57600080fd5b61217988828901611f46565b925050608061218a88828901611f70565b9150509295509295909350565b600080604083850312156121aa57600080fd5b60006121b885828601611ec8565b92505060206121c985828601611f70565b9150509250929050565b6000602082840312156121e557600080fd5b60006121f384828501611ef2565b91505092915050565b60006020828403121561220e57600080fd5b600061221c84828501611f07565b91505092915050565b60006020828403121561223757600080fd5b600061224584828501611f70565b91505092915050565b612257816128c8565b82525050565b612266816128da565b82525050565b600061227782612885565b612281818561289b565b935061229181856020860161294b565b61229a81612ab7565b840191505092915050565b60006122b082612890565b6122ba81856128ac565b93506122ca81856020860161294b565b6122d381612ab7565b840191505092915050565b60006122e982612890565b6122f381856128bd565b935061230381856020860161294b565b80840191505092915050565b600061231c602d836128ac565b915061232782612ac8565b604082019050919050565b600061233f6032836128ac565b915061234a82612b17565b604082019050919050565b60006123626026836128ac565b915061236d82612b66565b604082019050919050565b60006123856025836128ac565b915061239082612bb5565b604082019050919050565b60006123a8601c836128ac565b91506123b382612c04565b602082019050919050565b60006123cb6024836128ac565b91506123d682612c2d565b604082019050919050565b60006123ee6019836128ac565b91506123f982612c7c565b602082019050919050565b60006124116029836128ac565b915061241c82612ca5565b604082019050919050565b60006124346015836128ac565b915061243f82612cf4565b602082019050919050565b60006124576020836128ac565b915061246282612d1d565b602082019050919050565b600061247a6020836128ac565b915061248582612d46565b602082019050919050565b600061249d6018836128ac565b91506124a882612d6f565b602082019050919050565b60006124c06021836128ac565b91506124cb82612d98565b604082019050919050565b60006124e3603d836128ac565b91506124ee82612de7565b604082019050919050565b61250281612932565b82525050565b600061251482856122de565b915061252082846122de565b91508190509392505050565b6000602082019050612541600083018461224e565b92915050565b600060808201905061255c600083018761224e565b612569602083018661224e565b61257660408301856124f9565b8181036060830152612588818461226c565b905095945050505050565b60006020820190506125a8600083018461225d565b92915050565b600060208201905081810360008301526125c881846122a5565b905092915050565b600060808201905081810360008301526125ea81876122a5565b90506125f960208301866124f9565b818103604083015261260b81856122a5565b905061261a60608301846124f9565b95945050505050565b6000602082019050818103600083015261263c8161230f565b9050919050565b6000602082019050818103600083015261265c81612332565b9050919050565b6000602082019050818103600083015261267c81612355565b9050919050565b6000602082019050818103600083015261269c81612378565b9050919050565b600060208201905081810360008301526126bc8161239b565b9050919050565b600060208201905081810360008301526126dc816123be565b9050919050565b600060208201905081810360008301526126fc816123e1565b9050919050565b6000602082019050818103600083015261271c81612404565b9050919050565b6000602082019050818103600083015261273c81612427565b9050919050565b6000602082019050818103600083015261275c8161244a565b9050919050565b6000602082019050818103600083015261277c8161246d565b9050919050565b6000602082019050818103600083015261279c81612490565b9050919050565b600060208201905081810360008301526127bc816124b3565b9050919050565b600060208201905081810360008301526127dc816124d6565b9050919050565b60006020820190506127f860008301846124f9565b92915050565b6000612808612819565b905061281482826129b0565b919050565b6000604051905090565b600067ffffffffffffffff82111561283e5761283d612a88565b5b61284782612ab7565b9050602081019050919050565b600067ffffffffffffffff82111561286f5761286e612a88565b5b61287882612ab7565b9050602081019050919050565b600081519050919050565b600081519050919050565b600082825260208201905092915050565b600082825260208201905092915050565b600081905092915050565b60006128d382612912565b9050919050565b60008115159050919050565b60007fffffffff0000000000000000000000000000000000000000000000000000000082169050919050565b600073ffffffffffffffffffffffffffffffffffffffff82169050919050565b6000819050919050565b82818337600083830152505050565b60005b8381101561296957808201518184015260208101905061294e565b83811115612978576000848401525b50505050565b6000600282049050600182168061299657607f821691505b602082108114156129aa576129a9612a59565b5b50919050565b6129b982612ab7565b810181811067ffffffffffffffff821117156129d8576129d7612a88565b5b80604052505050565b60006129ec82612932565b91507fffffffffffffffffffffffffffffffffffffffffffffffffffffffffffffffff821415612a1f57612a1e612a2a565b5b600182019050919050565b7f4e487b7100000000000000000000000000000000000000000000000000000000600052601160045260246000fd5b7f4e487b7100000000000000000000000000000000000000000000000000000000600052602260045260246000fd5b7f4e487b7100000000000000000000000000000000000000000000000000000000600052604160045260246000fd5b6000601f19601f8301169050919050565b7f4552433732313a2063616c6c6572206973206e6f7420746f6b656e206f776e6560008201527f72206f7220617070726f76656400000000000000000000000000000000000000602082015250565b7f4552433732313a207472616e7366657220746f206e6f6e20455243373231526560008201527f63656976657220696d706c656d656e7465720000000000000000000000000000602082015250565b7f4f776e61626c653a206e6577206f776e657220697320746865207a65726f206160008201527f6464726573730000000000000000000000000000000000000000000000000000602082015250565b7f4552433732313a207472616e736665722066726f6d20696e636f72726563742060008201527f6f776e6572000000000000000000000000000000000000000000000000000000602082015250565b7f4552433732313a20746f6b656e20616c7265616479206d696e74656400000000600082015250565b7f4552433732313a207472616e7366657220746f20746865207a65726f2061646460008201527f7265737300000000000000000000000000000000000000000000000000000000602082015250565b7f4552433732313a20617070726f766520746f2063616c6c657200000000000000600082015250565b7f4552433732313a2061646472657373207a65726f206973206e6f74206120766160008201527f6c6964206f776e65720000000000000000000000000000000000000000000000602082015250565b7f5469636b657420646f6573206e6f742065786973740000000000000000000000600082015250565b7f4552433732313a206d696e7420746f20746865207a65726f2061646472657373600082015250565b7f4f776e61626c653a2063616c6c6572206973206e6f7420746865206f776e6572600082015250565b7f4552433732313a20696e76616c696420746f6b656e2049440000000000000000600082015250565b7f4552433732313a20617070726f76616c20746f2063757272656e74206f776e6560008201527f7200000000000000000000000000000000000000000000000000000000000000602082015250565b7f4552433732313a20617070726f76652063616c6c6572206973206e6f7420746f60008201527f6b656e206f776e6572206f7220617070726f76656420666f7220616c6c000000602082015250565b612e3f816128c8565b8114612e4a57600080fd5b50565b612e56816128da565b8114612e6157600080fd5b50565b612e6d816128e6565b8114612e7857600080fd5b50565b612e8481612932565b8114612e8f57600080fd5b5056fea2646970667358221220d57e10fbf4d2f11308c9c94e035e9294db533e1c9ea66b03c9e811eccf217ffb64736f6c63430008010033",
  "immutableReferences": {},
  "source": "pragma solidity ^0.8.1;\n\nimport \"@openzeppelin/contracts/token/ERC721/ERC721.sol\";\nimport \"@openzeppelin/contracts/access/Ownable.sol\";\n\ncontract Ticketing is ERC721, Ownable {\n    uint256 private _currentTicketId;\n\n    struct Ticket {\n        string eventName;\n        uint256 eventDate;\n        string venue;\n        uint256 price;\n    }\n\n    mapping(uint256 => Ticket) private _tickets;\n\n    constructor() ERC721(\"Ticketing\", \"TICK\") {}\n\n    function mintTicket(\n        address to,\n        string memory eventName,\n        uint256 eventDate,\n        string memory venue,\n        uint256 price\n    ) public onlyOwner {\n        uint256 newTicketId = _currentTicketId++;\n        _safeMint(to, newTicketId);\n        _tickets[newTicketId] = Ticket(eventName, eventDate, venue, price);\n    }\n\n    function getTicketInfo(uint256 ticketId)\n        public\n        view\n        returns (\n            string memory eventName,\n            uint256 eventDate,\n            string memory venue,\n            uint256 price\n        )\n    {\n        require(_exists(ticketId), \"Ticket does not exist\");\n        Ticket storage ticket = _tickets[ticketId];\n        return (ticket.eventName, ticket.eventDate, ticket.venue, ticket.price);\n    }\n}\n",
  "sourcePath": "/Users/tarunmidha/Desktop/UofTBootCamp/Project 3 /The Ticketing App/ticketing-app/contracts/Ticketing.sol",
  "compiler": {
    "name": "solc",
    "version": "0.8.1+commit.df193b15.Emscripten.clang"
  },
  "schemaVersion": "3.4.13",
  "updatedAt": "2023-05-05T00:33:18.849Z",
  "networkType": "ethereum",
  "devdoc": {
    "kind": "dev",
    "methods": {
      "approve(address,uint256)": {
        "details": "See {IERC721-approve}."
      },
      "balanceOf(address)": {
        "details": "See {IERC721-balanceOf}."
      },
      "getApproved(uint256)": {
        "details": "See {IERC721-getApproved}."
      },
      "isApprovedForAll(address,address)": {
        "details": "See {IERC721-isApprovedForAll}."
      },
      "name()": {
        "details": "See {IERC721Metadata-name}."
      },
      "owner()": {
        "details": "Returns the address of the current owner."
      },
      "ownerOf(uint256)": {
        "details": "See {IERC721-ownerOf}."
      },
      "renounceOwnership()": {
        "details": "Leaves the contract without owner. It will not be possible to call `onlyOwner` functions anymore. Can only be called by the current owner. NOTE: Renouncing ownership will leave the contract without an owner, thereby removing any functionality that is only available to the owner."
      },
      "safeTransferFrom(address,address,uint256)": {
        "details": "See {IERC721-safeTransferFrom}."
      },
      "safeTransferFrom(address,address,uint256,bytes)": {
        "details": "See {IERC721-safeTransferFrom}."
      },
      "setApprovalForAll(address,bool)": {
        "details": "See {IERC721-setApprovalForAll}."
      },
      "supportsInterface(bytes4)": {
        "details": "See {IERC165-supportsInterface}."
      },
      "symbol()": {
        "details": "See {IERC721Metadata-symbol}."
      },
      "tokenURI(uint256)": {
        "details": "See {IERC721Metadata-tokenURI}."
      },
      "transferFrom(address,address,uint256)": {
        "details": "See {IERC721-transferFrom}."
      },
      "transferOwnership(address)": {
        "details": "Transfers ownership of the contract to a new account (`newOwner`). Can only be called by the current owner."
      }
    },
    "version": 1
  },
  "userdoc": {
    "kind": "user",
    "methods": {},
    "version": 1
  }
}